:100000000C9472000C9493000C9493000C94930045
:100010000C9493000C9493000C9493000C94930014
:100020000C9493000C9493000C9493000C94930004
:100030000C9493000C940F020C9442020C948501D2
:100040000C9493000C9493000C9493000C949300E4
:100050000C9493000C941F010C9452010C94950085
:100060000C9493000C9493000C9493000C949300C4
:100070000C9493000C9493000C9493000C949300B4
:100080000C9493000C9493000C9493000C949300A4
:100090000C9493000C9493000C9493000C94930094
:1000A0000C9493000C94D6120C946A130C94930045
:1000B0000C9493000C9493000C9493000C94930074
:1000C0000C9493000C9493000C9493000C94930064
:1000D0000C9493000C9493000C9493000C94930054
:1000E0000C94930011241FBECFEFD1E2DEBFCDBF31
:1000F00000E00CBF13E0A0E0B2E0E4EBF8E300E0C6
:100100000BBF02C007900D92A433B107D9F713E0DB
:10011000A4E3B3E001C01D92A234B107E1F70E944D
:10012000A3140C94581C0C9400001F920F920FB64D
:100130000F9200905B000F9211248F93AF93BF93A7
:10014000EF93FF93DF93CF93CDB7DEB7E7E4F0E013
:100150008081882311F5E8E4F0E080818823E9F4C8
:10016000AEE2B0E0EEE2F0E080818F7E8C93AEE212
:10017000B0E0EEE2F0E080818F7D8C93A4E3B0E00C
:10018000E4E3F0E080818F7D8C93AEE2B0E0EEE2BC
:10019000F0E08081877F8C9343C0E7E4F0E08081CA
:1001A0008823E9F0AEE2B0E0EEE2F0E080818F7DFE
:1001B0008C93AEE2B0E0EEE2F0E0808180618C935F
:1001C000AEE2B0E0EEE2F0E08081877F8C93A4E3C2
:1001D000B0E0E4E3F0E0808180628C9321C0E8E449
:1001E000F0E080818823E1F0AEE2B0E0EEE2F0E002
:1001F00080818F7E8C93AEE2B0E0EEE2F0E0808111
:1002000080628C93A4E3B0E0E4E3F0E080818F7D32
:100210008C93AEE2B0E0EEE2F0E0808188608C93F7
:10022000CF91DF91FF91EF91BF91AF918F910F909F
:1002300000925B000F900FBE0F901F9018951F92B9
:100240000F920FB60F9200905B000F9211248F93C4
:10025000AF93BF93EF93FF93DF93CF93CDB7DEB709
:10026000E7E4F0E080818F3F71F0AEE2B0E0EEE2D3
:10027000F0E080818F7E8C93A4E3B0E0E4E3F0E0D3
:1002800080818F7D8C93CF91DF91FF91EF91BF9112
:10029000AF918F910F9000925B000F900FBE0F9067
:1002A0001F9018951F920F920FB60F9200905B004F
:1002B0000F9211248F93AF93BF93EF93FF93DF932C
:1002C000CF93CDB7DEB7E8E4F0E080818F3F71F0E7
:1002D000AEE2B0E0EEE2F0E080818F7D8C93AEE2A2
:1002E000B0E0EEE2F0E08081877F8C93CF91DF91E8
:1002F000FF91EF91BF91AF918F910F9000925B00B2
:100300000F900FBE0F901F9018951F920F920FB66F
:100310000F9200905B000F9211248F93AF93BF93C5
:10032000EF93FF93DF93CF93CDB7DEB7E3EBF0E02E
:100330008081882311F5E4EBF0E080818823E9F4E3
:10034000A5E2B0E0E5E2F0E080818F7E8C93A5E24B
:10035000B0E0E5E2F0E080818F7D8C93A5E2B0E033
:10036000E5E2F0E080818F7E8C93A5E2B0E0E5E2EB
:10037000F0E080818F7D8C9343C0E3EBF0E08081DF
:100380008823E9F0A5E2B0E0E5E2F0E080818F7D2E
:100390008C93A5E2B0E0E5E2F0E0808180618C938F
:1003A000A5E2B0E0E5E2F0E080818F778C93A5E2F2
:1003B000B0E0E5E2F0E0808180648C9321C0E4EB62
:1003C000F0E080818823E1F0A5E2B0E0E5E2F0E032
:1003D00080818F7E8C93A5E2B0E0E5E2F0E0808141
:1003E00080628C93A5E2B0E0E5E2F0E080818F7B53
:1003F0008C93A5E2B0E0E5E2F0E0808180688C9328
:10040000CF91DF91FF91EF91BF91AF918F910F90BD
:1004100000925B000F900FBE0F901F9018951F92D7
:100420000F920FB60F9200905B000F9211248F93E2
:10043000AF93BF93EF93FF93DF93CF93CDB7DEB727
:10044000E3EBF0E080818F3F71F0A5E2B0E0E5E200
:10045000F0E080818F7E8C93A5E2B0E0E5E2F0E0F1
:1004600080818F7B8C93CF91DF91FF91EF91BF9132
:10047000AF918F910F9000925B000F900FBE0F9085
:100480001F9018951F920F920FB60F9200905B006D
:100490000F9211248F93AF93BF93EF93FF93DF934A
:1004A000CF93CDB7DEB7E4EBF0E080818F3F71F002
:1004B000A5E2B0E0E5E2F0E080818F7D8C93A5E2DB
:1004C000B0E0E5E2F0E080818F778C93CF91DF910F
:1004D000FF91EF91BF91AF918F910F9000925B00D0
:1004E0000F900FBE0F901F901895DF93CF93CDB74D
:1004F000DEB7ADE2B0E0EDE2F0E0808180618C93A8
:10050000ADE2B0E0EDE2F0E0808180628C93A0E3A8
:10051000B0E0E0E3F0E0808180628C93ADE2B0E097
:10052000EDE2F0E0808188608C93A4E2B0E0E4E248
:10053000F0E0808180618C93A4E2B0E0E4E2F0E03E
:10054000808180628C93A4E2B0E0E4E2F0E08081FC
:1005500080648C93A4E2B0E0E4E2F0E08081806803
:100560008C93AEE2B0E0EEE2F0E080818F7E8C937F
:10057000AEE2B0E0EEE2F0E080818F7D8C93A4E308
:10058000B0E0E4E3F0E080818F7D8C93AEE2B0E0F8
:10059000EEE2F0E08081877F8C93E4E4F0E010826B
:1005A000E5E4F0E083E08083E7E4F0E01082E8E453
:1005B000F0E01082EEE6F0E087E08083E0EBF0E030
:1005C0001082E1EBF0E083E08083E3EBF0E0108267
:1005D000E4EBF0E01082E0E7F0E087E080837894DD
:1005E000CF91DF910895DF93CF930F92CDB7DEB710
:1005F000898389818C390CF446C0898185360CF059
:1006000042C08981882304F1E8E4F0E01082E7E445
:10061000F0E08981482F552747FD5095CA019C017C
:10062000220F331FC9019695982F88279795879594
:10063000821B930B840F951F24E630E0B9010E94C2
:10064000FA1BCB0180831FC0E7E4F0E01082E8E4EE
:10065000F0E08981482F552747FD5095CA019C013C
:10066000220F331FC9019695982F88279795879554
:10067000821B930B840F951F2CE93FEFB9010E9459
:10068000FA1BCB0180830F90CF91DF910895DF9308
:10069000CF930F92CDB7DEB7898389818C390CF463
:1006A00046C0898185360CF042C08981882304F1D7
:1006B000E4EBF0E01082E3EBF0E08981482F55276E
:1006C00047FD5095CA019C01220F331FC901969521
:1006D000982F882797958795821B930B840F951FDA
:1006E00024E630E0B9010E94FA1BCB0180831FC0D1
:1006F000E3EBF0E01082E4EBF0E08981482F55272E
:1007000047FD5095CA019C01220F331FC9019695E0
:10071000982F882797958795821B930B840F951F99
:100720002CE93FEFB9010E94FA1BCB0180830F90A7
:10073000CF91DF9108950F931F93DF93CF93CDB7A0
:10074000DEB7C25DD0400FB6F894DEBF0FBECDBF9E
:10075000FE01E153FF4F80E090E0A8ECB2E480831B
:100760009183A283B3838E0105531F4FFE01E15392
:10077000FF4F608171818281938120E030E04AE700
:1007800055E40E941D17DC01CB01F80180839183A1
:10079000A283B383FE01E553FF4F608171818281A3
:1007A000938120E030E040E85FE30E942319882332
:1007B00044F4FE01E753FF4F81E090E09183808392
:1007C00064C0FE01E553FF4F608171818281938196
:1007D00020E03FEF4FE757E40E94C31818160CF0D3
:1007E00043C0FE01E153FF4F60817181828193819B
:1007F00020E030E040E251E40E941D17DC01CB0113
:100800008E0107531F4FBC01CD010E944715DC012B
:10081000CB01F801918380831FC0FE01E953FF4F94
:1008200080E991E091838083FE01E953FF4F80814D
:1008300091810197F1F7FE01E953FF4F9183808386
:10084000DE01A753BF4FFE01E753FF4F8081918127
:10085000019711969C938E93FE01E753FF4F808181
:1008600091810097D1F627C08E0107531F4FFE01DB
:10087000E553FF4F60817181828193810E9447150A
:10088000DC01CB01F80191838083DE01AB53BF4FC4
:10089000FE01E753FF4F808191818D939C93FE0170
:1008A000EB53FF4F808191810197F1F7FE01EB53EC
:1008B000FF4F91838083ABE0B1E0EBE0F1E080811A
:1008C000877F8C93ABE0B1E0EBE0F1E080818B7F40
:1008D0008C9380E30E94E810FE01EF53FF4F80E00D
:1008E00090E0A0E2B1E480839183A283B3838E0180
:1008F00003541F4FFE01EF53FF4F608171818281CE
:10090000938120E030E04AE755E40E941D17DC01A6
:10091000CB01F80180839183A283B383FE01E3546A
:10092000FF4F608171818281938120E030E040E857
:100930005FE30E942319882344F4FE01E554FF4F2E
:1009400081E090E09183808364C0FE01E354FF4F17
:10095000608171818281938120E03FEF4FE757E40E
:100960000E94C31818160CF043C0FE01EF53FF4F4E
:10097000608171818281938120E030E040E251E426
:100980000E941D17DC01CB018E0105541F4FBC01D5
:10099000CD010E944715DC01CB01F80191838083D2
:1009A0001FC0FE01E754FF4F80E991E091838083EF
:1009B000FE01E754FF4F808191810197F1F7FE011D
:1009C000E754FF4F91838083DE01A554BF4FFE01A2
:1009D000E554FF4F80819181019711969C938E93EE
:1009E000FE01E554FF4F808191810097D1F627C029
:1009F0008E0105541F4FFE01E354FF4F608171814A
:100A0000828193810E944715DC01CB01F80191831B
:100A10008083DE01A954BF4FFE01E554FF4F808162
:100A200091818D939C93FE01E954FF4F80819181C8
:100A30000197F1F7FE01E954FF4F9183808380E332
:100A40000E94E810FE01ED54FF4F80E090E0A8E422
:100A5000B3E480839183A283B3838E0101551F4F3A
:100A6000FE01ED54FF4F60817181828193812BEAF9
:100A70003AEA4AEA50E40E941D17DC01CB01F80172
:100A800080839183A283B383FE01E155FF4F608190
:100A900071818281938120E030E040E85FE30E9431
:100AA0002319882334F4FE01E255FF4F81E080834F
:100AB000E0C0FE01E155FF4F608171818281938129
:100AC00020E030E04FE753E40E94C31818160CF002
:100AD000C0C0FE01ED54FF4F60817181828193811E
:100AE00020E030E04AE754E40E941718DC01CB0113
:100AF000FE01E655FF4F80839183A283B3838E016D
:100B00000A551F4FFE01E655FF4F608171818281BA
:100B1000938120E030E04AE755E40E941D17DC0194
:100B2000CB01F80180839183A283B383FE01EA5550
:100B3000FF4F608171818281938120E030E040E845
:100B40005FE30E942319882344F4FE01EC55FF4F14
:100B500081E090E09183808364C0FE01EA55FF4FFD
:100B6000608171818281938120E03FEF4FE757E4FC
:100B70000E94C31818160CF043C0FE01E655FF4F43
:100B8000608171818281938120E030E040E251E414
:100B90000E941D17DC01CB018E010C551F4FBC01BB
:100BA000CD010E944715DC01CB01F80191838083C0
:100BB0001FC0FE01EE55FF4F80E991E091838083D5
:100BC000FE01EE55FF4F808191810197F1F7FE0103
:100BD000EE55FF4F91838083DE01AC55BF4FFE0180
:100BE000EC55FF4F80819181019711969C938E93D4
:100BF000FE01EC55FF4F808191810097D1F64BC0EB
:100C00008E010C551F4FFE01EA55FF4F6081718127
:100C1000828193810E944715DC01CB01F801918309
:100C20008083DE01A056BF4FFE01EC55FF4F80814F
:100C3000918111969C938E93FE01E056FF4F808127
:100C400091810197F1F7FE01E056FF4F9183808378
:100C500022C08E0102551F4FFE01E155FF4F6081FA
:100C60007181828193810E944715DC01CB01F801DB
:100C70008083DE01A156BF4FFE01E255FF4F808108
:100C80008C93FE01E156FF4F80818A95F1F7FE01BA
:100C9000E156FF4F808380E30E94E810FE01E55695
:100CA000FF4F80E090E0A8E4B3E480839183A283C7
:100CB000B3838E0109561F4FFE01E556FF4F608139
:100CC0007181828193812BEA3AEA4AEA50E40E94D8
:100CD0001D17DC01CB01F80180839183A283B383CC
:100CE000FE01E956FF4F608171818281938120E08E
:100CF00030E040E85FE30E942319882334F4FE01CA
:100D0000EA56FF4F81E08083E0C0FE01E956FF4FC5
:100D1000608171818281938120E030E04FE753E46C
:100D20000E94C31818160CF0C0C0FE01E556FF4F14
:100D3000608171818281938120E030E04AE754E450
:100D40000E941718DC01CB01FE01EE56FF4F808395
:100D50009183A283B3838E0102571F4FFE01EE568B
:100D6000FF4F608171818281938120E030E04AE70A
:100D700055E40E941D17DC01CB01F80180839183AB
:100D8000A283B383FE01E257FF4F608171818281AC
:100D9000938120E030E040E85FE30E94231988233C
:100DA00044F4FE01E457FF4F81E090E0918380839B
:100DB00064C0FE01E257FF4F60817181828193819F
:100DC00020E03FEF4FE757E40E94C31818160CF0DD
:100DD00043C0FE01EE56FF4F608171818281938195
:100DE00020E030E040E251E40E941D17DC01CB011D
:100DF0008E0104571F4FBC01CD010E944715DC0135
:100E0000CB01F801918380831FC0FE01E657FF4F9D
:100E100080E991E091838083FE01E657FF4F808156
:100E200091810197F1F7FE01E657FF4F918380838F
:100E3000DE01A457BF4FFE01E457FF4F808191812F
:100E4000019711969C938E93FE01E457FF4F80818A
:100E500091810097D1F64BC08E0104571F4FFE01C0
:100E6000E257FF4F60817181828193810E94471513
:100E7000DC01CB01F80191838083DE01A857BF4FCD
:100E8000FE01E457FF4F8081918111969C938E93D0
:100E9000FE01E857FF4F808191810197F1F7FE0134
:100EA000E857FF4F9183808322C08E010A561F4F5F
:100EB000FE01E956FF4F60817181828193810E941A
:100EC0004715DC01CB01F8018083DE01A957BF4F34
:100ED000FE01EA56FF4F80818C93FE01E957FF4FD8
:100EE00080818A95F1F7FE01E957FF4F808388E200
:100EF0000E94E810FE01ED57FF4F80E090E0A0EA6D
:100F0000B2E480839183A283B3838E0101581F4F83
:100F1000FE01ED57FF4F60817181828193812BEA41
:100F20003AEA4AEA50E40E941D17DC01CB01F801BD
:100F300080839183A283B383FE01E158FF4F6081D8
:100F400071818281938120E030E040E85FE30E947C
:100F50002319882334F4FE01E258FF4F81E0808397
:100F6000E0C0FE01E158FF4F608171818281938171
:100F700020E030E04FE753E40E94C31818160CF04D
:100F8000C0C0FE01ED57FF4F608171818281938166
:100F900020E030E04AE754E40E941718DC01CB015E
:100FA000FE01E658FF4F80839183A283B3838E01B5
:100FB0000A581F4FFE01E658FF4F60817181828100
:100FC000938120E030E04AE755E40E941D17DC01E0
:100FD000CB01F80180839183A283B383FE01EA5899
:100FE000FF4F608171818281938120E030E040E891
:100FF0005FE30E942319882344F4FE01EC58FF4F5D
:1010000081E090E09183808364C0FE01EA58FF4F45
:10101000608171818281938120E03FEF4FE757E447
:101020000E94C31818160CF043C0FE01E658FF4F8B
:10103000608171818281938120E030E040E251E45F
:101040000E941D17DC01CB018E010C581F4FBC0103
:10105000CD010E944715DC01CB01F801918380830B
:101060001FC0FE01EE58FF4F80E991E0918380831D
:10107000FE01EE58FF4F808191810197F1F7FE014B
:10108000EE58FF4F91838083DE01AC58BF4FFE01C5
:10109000EC58FF4F80819181019711969C938E931C
:1010A000FE01EC58FF4F808191810097D1F64BC033
:1010B0008E010C581F4FFE01EA58FF4F608171816D
:1010C000828193810E944715DC01CB01F801918355
:1010D0008083DE01A059BF4FFE01EC58FF4F808195
:1010E000918111969C938E93FE01E059FF4F808170
:1010F00091810197F1F7FE01E059FF4F91838083C1
:1011000022C08E0102581F4FFE01E158FF4F60813F
:101110007181828193810E944715DC01CB01F80126
:101120008083DE01A159BF4FFE01E258FF4F80814D
:101130008C93FE01E159FF4F80818A95F1F7FE0102
:10114000E159FF4F808388E20E940010FE01E559BB
:10115000FF4F80E090E0A0EAB2E480839183A28315
:10116000B3838E0109591F4FFE01E559FF4F60817E
:101170007181828193812BEA3AEA4AEA50E40E9423
:101180001D17DC01CB01F80180839183A283B38317
:10119000FE01E959FF4F608171818281938120E0D6
:1011A00030E040E85FE30E942319882334F4FE0115
:1011B000EA59FF4F81E08083E0C0FE01E959FF4F0B
:1011C000608171818281938120E030E04FE753E4B8
:1011D0000E94C31818160CF0C0C0FE01E559FF4F5D
:1011E000608171818281938120E030E04AE754E49C
:1011F0000E941718DC01CB01FE01EE59FF4F8083DE
:101200009183A283B3838E01025A1F4FFE01EE59D0
:10121000FF4F608171818281938120E030E04AE755
:1012200055E40E941D17DC01CB01F80180839183F6
:10123000A283B383FE01E25AFF4F608171818281F4
:10124000938120E030E040E85FE30E942319882387
:1012500044F4FE01E45AFF4F81E090E091838083E3
:1012600064C0FE01E25AFF4F6081718182819381E7
:1012700020E03FEF4FE757E40E94C31818160CF028
:1012800043C0FE01EE59FF4F6081718182819381DD
:1012900020E030E040E251E40E941D17DC01CB0168
:1012A0008E01045A1F4FBC01CD010E944715DC017D
:1012B000CB01F801918380831FC0FE01E65AFF4FE6
:1012C00080E991E091838083FE01E65AFF4F80819F
:1012D00091810197F1F7FE01E65AFF4F91838083D8
:1012E000DE01A45ABF4FFE01E45AFF4F8081918175
:1012F000019711969C938E93FE01E45AFF4F8081D3
:1013000091810097D1F64BC08E01045A1F4FFE0108
:10131000E25AFF4F60817181828193810E9447155B
:10132000DC01CB01F80191838083DE01A85ABF4F15
:10133000FE01E45AFF4F8081918111969C938E9318
:10134000FE01E85AFF4F808191810197F1F7FE017C
:10135000E85AFF4F9183808322C08E010A591F4FA4
:10136000FE01E959FF4F60817181828193810E9462
:101370004715DC01CB01F8018083DE01A95ABF4F7C
:10138000FE01EA59FF4F80818C93FE01E95AFF4F1D
:1013900080818A95F1F7FE01E95AFF4F808388E04A
:1013A0000E940010FE01ED5AFF4F80E090E0A0EA9D
:1013B000B2E480839183A283B3838E01015B1F4FCC
:1013C000FE01ED5AFF4F60817181828193812BEA8A
:1013D0003AEA4AEA50E40E941D17DC01CB01F80109
:1013E00080839183A283B383FE01E15BFF4F608121
:1013F00071818281938120E030E040E85FE30E94C8
:101400002319882334F4FE01E25BFF4F81E08083DF
:10141000E0C0FE01E15BFF4F6081718182819381B9
:1014200020E030E04FE753E40E94C31818160CF098
:10143000C0C0FE01ED5AFF4F6081718182819381AE
:1014400020E030E04AE754E40E941718DC01CB01A9
:10145000FE01E65BFF4F80839183A283B3838E01FD
:101460000A5B1F4FFE01E65BFF4F60817181828145
:10147000938120E030E04AE755E40E941D17DC012B
:10148000CB01F80180839183A283B383FE01EA5BE1
:10149000FF4F608171818281938120E030E040E8DC
:1014A0005FE30E942319882344F4FE01EC5BFF4FA5
:1014B00081E090E09183808364C0FE01EA5BFF4F8E
:1014C000608171818281938120E03FEF4FE757E493
:1014D0000E94C31818160CF043C0FE01E65BFF4FD4
:1014E000608171818281938120E030E040E251E4AB
:1014F0000E941D17DC01CB018E010C5B1F4FBC014C
:10150000CD010E944715DC01CB01F8019183808356
:101510001FC0FE01EE5BFF4F80E991E09183808365
:10152000FE01EE5BFF4F808191810197F1F7FE0193
:10153000EE5BFF4F91838083DE01AC5BBF4FFE010A
:10154000EC5BFF4F80819181019711969C938E9364
:10155000FE01EC5BFF4F808191810097D1F642C084
:101560008E010C5B1F4FFE01EA5BFF4F60817181B2
:10157000828193810E944715DC01CB01F8019183A0
:101580008083DE01A05CBF4FFE01EC5BFF4F8081DA
:10159000918111969C938E93FE01E05CFF4F8081B8
:1015A00091810197F1F7FE01E05CFF4F9183808309
:1015B00019C08E01025B1F4FFE01E15BFF4F60818E
:1015C0007181828193810E944715DC01CB01F80172
:1015D0008083FE01E25BFF4F80818FAF8FAD8A95E4
:1015E000F1F78FAF81E00E94001080E090E0A0E86A
:1015F000B0E48BAF9CAFADAFBEAF6BAD7CAD8DAD8E
:101600009EAD20E030E04AE755E40E941D17DC0162
:10161000CB018FAB98AFA9AFBAAF6FA978AD89AD49
:101620009AAD20E030E040E85FE30E942319882370
:101630002CF481E090E09EAB8DAB3FC06FA978ADFC
:1016400089AD9AAD20E03FEF4FE757E40E94C31801
:1016500018164CF56BAD7CAD8DAD9EAD20E030E045
:1016600040E251E40E941D17DC01CB01BC01CD0119
:101670000E944715DC01CB019EAB8DAB0FC080E90A
:1016800091E09CAB8BAB8BA99CA90197F1F79CAB2C
:101690008BAB8DA99EA901979EAB8DAB8DA99EA901
:1016A000009769F714C06FA978AD89AD9AAD0E9413
:1016B0004715DC01CB019EAB8DAB8DA99EA99AABE2
:1016C00089AB89A99AA90197F1F79AAB89AB86E012
:1016D0000E94001080E090E0A0EAB2E48DA79EA7EF
:1016E000AFA7B8AB6DA57EA58FA598A92BEA3AEA5E
:1016F0004AEA50E40E941D17DC01CB0189A79AA792
:10170000ABA7BCA769A57AA58BA59CA520E030E076
:1017100040E85FE30E94231988231CF481E088A736
:1017200091C069A57AA58BA59CA520E030E04FE784
:1017300053E40E94C31818160CF07BC06DA57EA55B
:101740008FA598A920E030E04AE754E40E941718DA
:10175000DC01CB018CA39DA3AEA3BFA36CA17DA193
:101760008EA19FA120E030E04AE755E40E941D17BA
:10177000DC01CB0188A399A3AAA3BBA368A179A18B
:101780008AA19BA120E030E040E85FE30E9423199A
:1017900088232CF481E090E09F8F8E8F3FC068A15A
:1017A00079A18AA19BA120E03FEF4FE757E40E9477
:1017B000C31818164CF56CA17DA18EA19FA120E045
:1017C00030E040E251E40E941D17DC01CB01BC0176
:1017D000CD010E944715DC01CB019F8F8E8F0FC07A
:1017E00080E991E09D8F8C8F8C8D9D8D0197F1F715
:1017F0009D8F8C8F8E8D9F8D01979F8F8E8F8E8D5D
:101800009F8D009769F724C068A179A18AA19BA147
:101810000E944715DC01CB019F8F8E8F8E8D9F8D8F
:101820009B8F8A8F8A8D9B8D0197F1F79B8F8A8F73
:101830000FC069A57AA58BA59CA50E944715DC0160
:10184000CB0188A788A5898F898D8A95F1F7898F23
:101850008CE00E94001080E090E0A0EAB2E48D8B62
:101860009E8BAF8BB88F6D897E898F89988D2BEA7F
:101870003AEA4AEA50E40E941D17DC01CB01898B49
:101880009A8BAB8BBC8B69897A898B899C8920E088
:1018900030E040E85FE30E94231988231CF481E0D4
:1018A000888B91C069897A898B899C8920E030E096
:1018B0004FE753E40E94C31818160CF07BC06D89E3
:1018C0007E898F89988D20E030E04AE754E40E94B9
:1018D0001718DC01CB018C879D87AE87BF876C858D
:1018E0007D858E859F8520E030E04AE755E40E94A3
:1018F0001D17DC01CB0188879987AA87BB8768857C
:1019000079858A859B8520E030E040E85FE30E948E
:10191000231988232CF481E090E09F838E833FC0BD
:10192000688579858A859B8520E03FEF4FE757E4FE
:101930000E94C31818164CF56C857D858E859F8591
:1019400020E030E040E251E40E941D17DC01CB01B1
:10195000BC01CD010E944715DC01CB019F838E8322
:101960000FC080E991E09D838C838C819D810197DC
:10197000F1F79D838C838E819F8101979F838E8356
:101980008E819F81009769F724C0688579858A8553
:101990009B850E944715DC01CB019F838E838E813E
:1019A0009F819B838A838A819B810197F1F79B8327
:1019B0008A830FC069897A898B899C890E9447151F
:1019C000DC01CB01888B8889898389818A95F1F72D
:1019D0008983CE52DF4F0FB6F894DEBF0FBECDBF66
:1019E000CF91DF911F910F910895DF93CF93CDB7E2
:1019F000DEB76C970FB6F894DEBF0FBECDBF9C8FDD
:101A00008B8F1A8E198EC8C0EB8DFC8D80810E9441
:101A1000E00F8B8D9C8D01969C8F8B8F80E090E0EA
:101A2000A0EAB2E48D8B9E8BAF8BB88F6D897E89D7
:101A30008F89988D2BEA3AEA4AEA50E40E941D17F2
:101A4000DC01CB01898B9A8BAB8BBC8B69897A8942
:101A50008B899C8920E030E040E85FE30E942319F5
:101A600088231CF481E0888B91C069897A898B89ED
:101A70009C8920E030E04FE753E40E94C318181619
:101A80000CF07BC06D897E898F89988D20E030E0D5
:101A90004AE754E40E941718DC01CB018C879D872C
:101AA000AE87BF876C857D858E859F8520E030E081
:101AB0004AE755E40E941D17DC01CB01888799870E
:101AC000AA87BB87688579858A859B8520E030E079
:101AD00040E85FE30E94231988232CF481E090E022
:101AE0009F838E833FC0688579858A859B8520E0AA
:101AF0003FEF4FE757E40E94C31818164CF56C856A
:101B00007D858E859F8520E030E040E251E40E9493
:101B10001D17DC01CB01BC01CD010E944715DC0182
:101B2000CB019F838E830FC080E991E09D838C83DE
:101B30008C819D810197F1F79D838C838E819F819C
:101B400001979F838E838E819F81009769F724C0C0
:101B5000688579858A859B850E944715DC01CB01C4
:101B60009F838E838E819F819B838A838A819B81C1
:101B70000197F1F79B838A830FC069897A898B89E2
:101B80009C890E944715DC01CB01888B8889898359
:101B900089818A95F1F78983EB8DFC8D808188237B
:101BA00009F032CF6C960FB6F894DEBF0FBECDBFF2
:101BB000CF91DF910895DF93CF93CDB7DEB7ED9747
:101BC0000FB6F894DEBF0FBECDBF9BAF8AAF7DAF1F
:101BD0006CAF85E0FE01F596DF01282F1D922A9556
:101BE000E9F784E090E09CAB8BAB1AAA19AA1EC05F
:101BF000EBA9FCA98AAD9BAD2AE030E0B9010E94B7
:101C0000FA1B282FCE01C596E80FF91F20838AAD55
:101C10009BAD2AE030E0B9010E94FA1BCB019BAFDB
:101C20008AAF8BA99CA901979CAB8BAB8AAD9BAD6E
:101C30000097F1F68CAD9DADAFEF8F3F9A0789F419
:101C400005C089A99AA901969AAB89AB29A93AA995
:101C5000CE01C596FC01E20FF31F8081882389F332
:101C600008C085E090E02CAD3DAD821B930B9AAB94
:101C700089AB8AAD9BAD99231CF48DE20E94E00FE5
:101C800080E090E0A0EAB2E48DA79EA7AFA7B8AB32
:101C90006DA57EA58FA598A92BEA3AEA4AEA50E4F9
:101CA0000E941D17DC01CB0189A79AA7ABA7BCA78F
:101CB00069A57AA58BA59CA520E030E040E85FE30C
:101CC0000E94231988231CF481E088A791C069A58C
:101CD0007AA58BA59CA520E030E04FE753E40E9455
:101CE000C31818160CF07BC06DA57EA58FA598A90A
:101CF00020E030E04AE754E40E941718DC01CB01F1
:101D00008CA39DA3AEA3BFA36CA17DA18EA19FA117
:101D100020E030E04AE755E40E941D17DC01CB01CA
:101D200088A399A3AAA3BBA368A179A18AA19BA117
:101D300020E030E040E85FE30E94231988232CF480
:101D400081E090E09F8F8E8F3FC068A179A18AA12A
:101D50009BA120E03FEF4FE757E40E94C3181816FD
:101D60004CF56CA17DA18EA19FA120E030E040E266
:101D700051E40E941D17DC01CB01BC01CD010E9482
:101D80004715DC01CB019F8F8E8F0FC080E991E05A
:101D90009D8F8C8F8C8D9D8D0197F1F79D8F8C8FF2
:101DA0008E8D9F8D01979F8F8E8F8E8D9F8D00972B
:101DB00069F724C068A179A18AA19BA10E94471557
:101DC000DC01CB019F8F8E8F8E8D9F8D9B8F8A8F95
:101DD0008A8D9B8D0197F1F79B8F8A8F0FC069A524
:101DE0007AA58BA59CA50E944715DC01CB0188A78D
:101DF00088A5898F898D8A95F1F7898F89A99AA9F4
:101E00009CAB8BABCEC02BA93CA9CE01C596FC01E7
:101E1000E20FF31F8081805D0E94E00F80E090E080
:101E2000A0EAB2E48D8B9E8BAF8BB88F6D897E89D3
:101E30008F89988D2BEA3AEA4AEA50E40E941D17EE
:101E4000DC01CB01898B9A8BAB8BBC8B69897A893E
:101E50008B899C8920E030E040E85FE30E942319F1
:101E600088231CF481E0888B91C069897A898B89E9
:101E70009C8920E030E04FE753E40E94C318181615
:101E80000CF07BC06D897E898F89988D20E030E0D1
:101E90004AE754E40E941718DC01CB018C879D8728
:101EA000AE87BF876C857D858E859F8520E030E07D
:101EB0004AE755E40E941D17DC01CB01888799870A
:101EC000AA87BB87688579858A859B8520E030E075
:101ED00040E85FE30E94231988232CF481E090E01E
:101EE0009F838E833FC0688579858A859B8520E0A6
:101EF0003FEF4FE757E40E94C31818164CF56C8566
:101F00007D858E859F8520E030E040E251E40E948F
:101F10001D17DC01CB01BC01CD010E944715DC017E
:101F2000CB019F838E830FC080E991E09D838C83DA
:101F30008C819D810197F1F79D838C838E819F8198
:101F400001979F838E838E819F81009769F724C0BC
:101F5000688579858A859B850E944715DC01CB01C0
:101F60009F838E838E819F819B838A838A819B81BD
:101F70000197F1F79B838A830FC069897A898B89DE
:101F80009C890E944715DC01CB01888B8889898355
:101F900089818A95F1F789838BA99CA901969CABCD
:101FA0008BAB8BA99CA9853091050CF42CCFED96B9
:101FB0000FB6F894DEBF0FBECDBFCF91DF9108956D
:101FC000DF93CF930F92CDB7DEB78983ABE0B1E05B
:101FD000EBE0F1E0808188608C93ABE0B1E0EBE076
:101FE000F1E080818B7F8C9389810E94E810898148
:101FF0008295807F0E94E8100F90CF91DF91089525
:10200000DF93CF93CDB7DEB769970FB6F894DEBFF5
:102010000FBECDBF898FABE0B1E0EBE0F1E0808196
:10202000877F8C93ABE0B1E0EBE0F1E080818B7FC8
:102030008C93898D0E94E810898D8295807F0E9403
:10204000E81080E090E0A0EAB2E48D8B9E8BAF8B2D
:10205000B88F6D897E898F89988D2BEA3AEA4AEA92
:1020600050E40E941D17DC01CB01898B9A8BAB8B4E
:10207000BC8B69897A898B899C8920E030E040E8B3
:102080005FE30E94231988231CF481E0888B91C0B0
:1020900069897A898B899C8920E030E04FE753E495
:1020A0000E94C31818160CF07BC06D897E898F8939
:1020B000988D20E030E04AE754E40E941718DC01D4
:1020C000CB018C879D87AE87BF876C857D858E858C
:1020D0009F8520E030E04AE755E40E941D17DC01AF
:1020E000CB0188879987AA87BB87688579858A8588
:1020F0009B8520E030E040E85FE30E9423198823BD
:102100002CF481E090E09F838E833FC068857985C1
:102110008A859B8520E03FEF4FE757E40E94C31874
:1021200018164CF56C857D858E859F8520E030E006
:1021300040E251E40E941D17DC01CB01BC01CD013E
:102140000E944715DC01CB019F838E830FC080E97D
:1021500091E09D838C838C819D810197F1F79D8314
:102160008C838E819F8101979F838E838E819F8137
:10217000009769F724C0688579858A859B850E94C8
:102180004715DC01CB019F838E838E819F819B83CA
:102190008A838A819B810197F1F79B838A830FC091
:1021A00069897A898B899C890E944715DC01CB015A
:1021B000888B8889898389818A95F1F789836996D3
:1021C0000FB6F894DEBF0FBECDBFCF91DF9108955B
:1021D000DF93CF93CDB7DEB7E1970FB6F894DEBFAC
:1021E0000FBECDBF89ABA5E2B0E0E5E2F0E08081B3
:1021F0008D7F8C9389A988233CF4A5E2B0E0E5E2C9
:10220000F0E0808182608C93A5E2B0E0E5E2F0E04E
:1022100080818E7F8C9389A9882F90E08074907044
:10222000009739F0A5E2B0E0E5E2F0E0808181605E
:102230008C93A5E2B0E0E5E2F0E08081877F8C93AB
:1022400089A9882F90E080729070009739F0A5E2FC
:10225000B0E0E5E2F0E0808188608C93A5E2B0E038
:10226000E5E2F0E080818B7F8C9389A9882F90E054
:1022700080719070009739F0A5E2B0E0E5E2F0E0FF
:10228000808184608C93ABE0B1E0EBE0F1E0808191
:1022900084608C9380E090E0A0E8BFE38DA79EA7C8
:1022A000AFA7B8AB6DA57EA58FA598A92BEA3AEA92
:1022B0004AEA50E40E941D17DC01CB0189A79AA7C6
:1022C000ABA7BCA769A57AA58BA59CA520E030E0AB
:1022D00040E85FE30E94231988231CF481E088A76B
:1022E00091C069A57AA58BA59CA520E030E04FE7B9
:1022F00053E40E94C31818160CF07BC06DA57EA590
:102300008FA598A920E030E04AE754E40E9417180E
:10231000DC01CB018CA39DA3AEA3BFA36CA17DA1C7
:102320008EA19FA120E030E04AE755E40E941D17EE
:10233000DC01CB0188A399A3AAA3BBA368A179A1BF
:102340008AA19BA120E030E040E85FE30E942319CE
:1023500088232CF481E090E09F8F8E8F3FC068A18E
:1023600079A18AA19BA120E03FEF4FE757E40E94AB
:10237000C31818164CF56CA17DA18EA19FA120E079
:1023800030E040E251E40E941D17DC01CB01BC01AA
:10239000CD010E944715DC01CB019F8F8E8F0FC0AE
:1023A00080E991E09D8F8C8F8C8D9D8D0197F1F749
:1023B0009D8F8C8F8E8D9F8D01979F8F8E8F8E8D91
:1023C0009F8D009769F724C068A179A18AA19BA17C
:1023D0000E944715DC01CB019F8F8E8F8E8D9F8DC4
:1023E0009B8F8A8F8A8D9B8D0197F1F79B8F8A8FA8
:1023F0000FC069A57AA58BA59CA50E944715DC0195
:10240000CB0188A788A5898F898D8A95F1F7898F57
:10241000ABE0B1E0EBE0F1E080818B7F8C9380E07A
:1024200090E0A0E8BFE38D8B9E8BAF8BB88F6D895A
:102430007E898F89988D2BEA3AEA4AEA50E40E9415
:102440001D17DC01CB01898B9A8BAB8BBC8B698907
:102450007A898B899C8920E030E040E85FE30E9424
:10246000231988231CF481E0888B91C069897A89BB
:102470008B899C8920E030E04FE753E40E94C31829
:1024800018160CF07BC06D897E898F89988D20E0AD
:1024900030E04AE754E40E941718DC01CB018C8736
:1024A0009D87AE87BF876C857D858E859F8520E063
:1024B00030E04AE755E40E941D17DC01CB01888714
:1024C0009987AA87BB87688579858A859B8520E05F
:1024D00030E040E85FE30E94231988232CF481E078
:1024E00090E09F838E833FC0688579858A859B8530
:1024F00020E03FEF4FE757E40E94C31818164CF551
:102500006C857D858E859F8520E030E040E251E43A
:102510000E941D17DC01CB01BC01CD010E944715B3
:10252000DC01CB019F838E830FC080E991E09D8306
:102530008C838C819D810197F1F79D838C838E81A3
:102540009F8101979F838E838E819F81009769F77A
:1025500024C0688579858A859B850E944715DC01A2
:10256000CB019F838E838E819F819B838A838A8107
:102570009B810197F1F79B838A830FC069897A89D0
:102580008B899C890E944715DC01CB01888B888947
:10259000898389818A95F1F78983E1960FB6F8944A
:1025A000DEBF0FBECDBFCF91DF9108951F920F9276
:1025B0000FB60F9200905B000F9211242F933F9360
:1025C0004F935F936F937F938F939F93AF93BF933B
:1025D000EF93FF93DF93CF93CDB7DEB7E1EAF0E05F
:1025E0008081882F90E080749070009781F0A1EA3C
:1025F000B0E0E1EAF0E080818F7B8C93E6EAF0E0E6
:102600008081918190934103809340034DC0A1EA62
:10261000B0E0E1EAF0E0808180648C93E6EAF0E0EB
:1026200080819181909339038093380320913803FE
:10263000309139038091400390914103A901481BD7
:10264000590BCA0190933F0380933E0320913C03B2
:1026500030913D0380913E0390913F03AC01249F54
:10266000C001259F900D349F900D1124AA2797FD3E
:10267000A095BA2FBC01CD010E945319DC01CB01FA
:10268000BC01CD0125E035EC4FE25EE30E941D1751
:10269000DC01CB01BC01CD010E94B119DC01CB01F1
:1026A00090933B0380933A03CF91DF91FF91EF9199
:1026B000BF91AF919F918F917F916F915F914F915A
:1026C0003F912F910F9000925B000F900FBE0F90E3
:1026D0001F9018951F920F920FB60F9200905B00FB
:1026E0000F9211242F933F934F935F936F937F9398
:1026F0008F939F93AF93BF93EF93FF93DF93CF930A
:10270000CDB7DEB76897DEBFCDBFA8E2B0E0E8E2A4
:10271000F0E0808180618C9380E090E0A0E4B1E4FF
:102720008D8B9E8BAF8BB88F6D897E898F89988DAD
:102730002BEA3AEA4AEA50E40E941D17DC01CB0179
:10274000898B9A8BAB8BBC8B69897A898B899C89A5
:1027500020E030E040E85FE30E94231988231CF466
:1027600081E0888B91C069897A898B899C8920E076
:1027700030E04FE753E40E94C31818160CF07BC0FA
:102780006D897E898F89988D20E030E04AE754E496
:102790000E941718DC01CB018C879D87AE87BF870D
:1027A0006C857D858E859F8520E030E04AE755E485
:1027B0000E941D17DC01CB0188879987AA87BB87F8
:1027C000688579858A859B8520E030E040E85FE375
:1027D0000E94231988232CF481E090E09F838E834C
:1027E0003FC0688579858A859B8520E03FEF4FE76C
:1027F00057E40E94C31818164CF56C857D858E85AC
:102800009F8520E030E040E251E40E941D17DC018A
:10281000CB01BC01CD010E944715DC01CB019F8398
:102820008E830FC080E991E09D838C838C819D8194
:102830000197F1F79D838C838E819F8101979F8300
:102840008E838E819F81009769F724C06885798582
:102850008A859B850E944715DC01CB019F838E836F
:102860008E819F819B838A838A819B810197F1F767
:102870009B838A830FC069897A898B899C890E948E
:102880004715DC01CB01888B8889898389818A95EA
:10289000F1F78983A8E2B0E0E8E2F0E080818F7E82
:1028A0008C936896DEBFCDBFCF91DF91FF91EF9102
:1028B000BF91AF919F918F917F916F915F914F9158
:1028C0003F912F910F9000925B000F900FBE0F90E1
:1028D0001F901895DF93CF93CDB7DEB7A0EAB0E095
:1028E000E0EAF0E0808182608C93A1EAB0E0E1EA66
:1028F000F0E0808183608C93A2E7B0E0E2E7F0E053
:10290000808182628C93A1EAB0E0E1EAF0E080810C
:1029100080648C93E8EAF0E08CE594E49183808312
:10292000789484E090E090933D0380933C03CF91B2
:10293000DF910895DF93CF93CDB7DEB70E94750284
:10294000CF91DF910895DF93CF93CDB7DEB7ADE29E
:10295000B0E0EDE2F0E080818F7E8C93A4E2B0E005
:10296000E4E2F0E0808182608C93A4E2B0E0E4E2F3
:10297000F0E0808181608C93A4E2B0E0E4E2F0E0DA
:10298000808188608C93A4E2B0E0E4E2F0E0808192
:1029900084608C93AAE0B1E0EAE0F1E08081846099
:1029A0008C93AAE0B1E0EAE0F1E0808188608C934A
:1029B0000E949B0380E80E94001080E092E00E9449
:1029C000F50CA7E2B0E0E7E2F0E0808180618C9353
:1029D000A8E2B0E0E8E2F0E080818F7E8C930E9474
:1029E0006A140E949A148091360390913703909351
:1029F000350380933403ECE2F0E08081882F90E08F
:102A000080719070009739F081E090E090933703E7
:102A10008093360304C0109237031092360320913E
:102A20003603309137038091340390913503281792
:102A30003907D9F48091360390913703813091059D
:102A400039F480EC0E9400108BE092E00E94F50CBB
:102A50008091360390913703009739F480EC0E94FF
:102A600000108BE192E00E94F50C8AE80E940010B1
:102A700080913A0390913B0363E070E00E94DB0D8C
:102A800080E50E94F30280EB0E944703ACCFEF92F7
:102A9000FF920F931F937B018C0120E030E040E018
:102AA0005FE40E94F31888238CF0C801B70120E08E
:102AB00030E040E05FE40E94BF160E94B1199B0124
:102AC000AC01205030404040504806C0C801B7011A
:102AD0000E94B1199B01AC01B901CA011F910F916C
:102AE000FF90EF900895A0E0B0E0E9E7F5E10C94E5
:102AF000211CDC012B01FA019C91923008F439C1B0
:102B0000EB018881823008F433C1943069F4843059
:102B100009F02FC111969C9111978981981709F49A
:102B200028C1ACE2B2E025C1843009F421C1823071
:102B3000A9F4923009F01DC19A01AD0188E0EA01C3
:102B40000990AE01E90109929E018150C1F7E201AD
:102B5000898111969C918923818308C1923009F45F
:102B600007C112962D903C901397EB018A819B81AF
:102B70001496AD90BD90CD90DC901797EC80FD80C1
:102B80000E811F819101281B390BB90137FF04C049
:102B900066277727621B730B603271050CF061C0EA
:102BA000121613066CF537014801062E04C09694E0
:102BB0008794779467940A94D2F721E030E040E05C
:102BC00050E004C0220F331F441F551F6A95D2F7EF
:102BD00021503040404050402E213F21402351237E
:102BE000211531054105510521F021E030E040E09B
:102BF00050E079018A01E628F728082919293CC004
:102C0000232BD1F1260E371E35014601062E04C0B6
:102C100096948794779467940A94D2F721E030E0F1
:102C200040E050E004C0220F331F441F551F6A9537
:102C3000D2F721503040404050402A213B214C21C6
:102C40005D21211531054105510521F021E030E0DC
:102C500040E050E059016A01A628B728C828D928C1
:102C60000BC0821593052CF01C01AA24BB2465011E
:102C700003C0EE24FF24870111969C91D201119686
:102C80008C91981709F445C0992339F0A801970150
:102C90002A193B094C095D0906C0A60195012E19A8
:102CA0003F09400B510B57FD08C01182338222822D
:102CB00024833583468357831DC081E0818333821B
:102CC000228288279927DC01821B930BA40BB50B6A
:102CD00084839583A683B7830DC0220F331F441FBF
:102CE000551F2483358346835783828193810197BF
:102CF000938382832481358146815781DA01C9011A
:102D00000197A109B1098F5F9F4FAF4FBF4328F3D0
:102D10000BC0918333822282EA0CFB1C0C1D1D1D0B
:102D2000E482F5820683178383E0808324813581E2
:102D30004681578157FF1AC0C901AA2797FDA09560
:102D4000BA2F81709070A070B070569547953795E6
:102D50002795822B932BA42BB52B84839583A68355
:102D6000B78382819381019693838283DF0101C0BF
:102D7000D201CD01CDB7DEB7E2E10C943D1CA0E25B
:102D8000B0E0E5ECF6E10C942D1C69837A838B832B
:102D90009C832D833E834F835887E9E0EE2EF12CF0
:102DA000EC0EFD1ECE010196B7010E94291B8E017B
:102DB0000F5E1F4FCE010596B8010E94291B8A891C
:102DC00091E089278A8BC701B801AE01475E5F4F4A
:102DD0000E9473150E94541AA096E6E00C94491CB8
:102DE000A0E2B0E0E6EFF6E10C942D1C69837A8353
:102DF0008B839C832D833E834F835887F9E0EF2E8E
:102E0000F12CEC0EFD1ECE010196B7010E94291B8C
:102E10008E010F5E1F4FCE010596B8010E94291B3F
:102E2000C701B801AE01475E5F4F0E9473150E9453
:102E3000541AA096E6E00C94491CA0E2B0E0E3E24C
:102E4000F7E10C94211C69837A838B839C832D8307
:102E50003E834F835887CE010196BE01675F7F4F47
:102E60000E94291BCE010596BE016F5E7F4F0E9416
:102E7000291B9985923088F089898230C8F0943076
:102E800019F4823051F404C0843029F4923081F472
:102E90008CE292E0C6C0923049F420E09A858A899B
:102EA000981321E02A87CE010996BBC0823049F4ED
:102EB00020E09A858A89981321E02A8BCE014196D9
:102EC000B0C02D843E844F8458886D887E888F885A
:102ED000988CEE24FF248701AA24BB24650140E0DE
:102EE00050E060E070E0E0E0F0E0C10181709070DF
:102EF000892BE9F0E60CF71C081D191D9A01AB019E
:102F00002A0D3B1D4C1D5D1D80E090E0A0E0B0E06F
:102F1000E614F7040805190520F481E090E0A0E02C
:102F2000B0E0BA01A901480F591F6A1F7B1FAA0C04
:102F3000BB1CCC1CDD1C97FE08C081E090E0A0E02B
:102F4000B0E0A82AB92ACA2ADB2A3196E032F10574
:102F500049F0660C771C881C991C5694479437944A
:102F60002794C3CFFA85EA892B893C898B859C8578
:102F7000280F391F2E5F3F4F17C0CA018170907014
:102F8000892B61F016950795F794E79480E090E01F
:102F9000A0E0B0E8E82AF92A0A2B1B2B7695679562
:102FA000579547952F5F3F4F77FDE7CF0CC0440FF4
:102FB000551F661F771F17FD4160EE0CFF1C001F99
:102FC000111F21503040403090E0590790E06907D0
:102FD00090E4790760F32B8F3C8FDB01CA018F7778
:102FE0009070A070B07080349105A105B10561F4B6
:102FF00047FD0AC0E114F1040105110529F0405C08
:103000005F4F6F4F7F4F40781A8EFE1711F081E0AF
:103010008A8F4D8F5E8F6F8F78A383E0898FCE016B
:1030200049960E94541AA096E2E10C943D1CA8E136
:10303000B0E0EDE1F8E10C94291C69837A838B837D
:103040009C832D833E834F835887B9E0EB2EF12C70
:10305000EC0EFD1ECE010196B7010E94291B8E01C8
:103060000F5E1F4FCE010596B8010E94291B2985CE
:10307000223008F47EC03989323010F4B8017CC0A7
:103080008A859A8989278A87243011F0223031F481
:10309000231709F06EC06CE272E06EC0343039F470
:1030A0001D861E861F86188A1C861B8604C0323029
:1030B00021F484E08987B7015FC02B853C858B892B
:1030C0009C89281B390B3C872B87ED84FE840F8558
:1030D0001889AD88BE88CF88D88CEA14FB040C050B
:1030E0001D0540F4EE0CFF1C001F111F2150304045
:1030F0003C872B8720E030E040E050E080E090E02B
:10310000A0E0B0E460E070E0EA14FB040C051D05EB
:1031100040F0282B392B4A2B5B2BEA18FB080C09B3
:103120001D09B695A79597958795EE0CFF1C001F76
:10313000111F6F5F7F4F6F31710531F7DA01C901E0
:103140008F779070A070B07080349105A105B105A3
:1031500061F427FD0AC0E114F1040105110529F00D
:10316000205C3F4F4F4F5F4F20782D873E874F8722
:10317000588BBE01675F7F4FCB010E94541A68963F
:10318000EAE00C94451CA8E1B0E0E9ECF8E10C940D
:103190002D1C69837A838B839C832D833E834F838D
:1031A000588789E0E82EF12CEC0EFD1ECE01019629
:1031B000B7010E94291B8E010F5E1F4FCE0105969D
:1031C000B8010E94291B8985823040F089898230AC
:1031D00028F0C701B8010E94A11B01C08FEF6896BB
:1031E000E6E00C94491CA8E1B0E0E9EFF8E10C94AA
:1031F0002D1C69837A838B839C832D833E834F832D
:10320000588789E0E82EF12CEC0EFD1ECE010196C8
:10321000B7010E94291B8E010F5E1F4FCE0105963C
:10322000B8010E94291B8985823040F0898982304B
:1032300028F0C701B8010E94A11B01C08FEF68965A
:10324000E6E00C94491CA8E1B0E0E9E2F9E10C9455
:103250002D1C69837A838B839C832D833E834F83CC
:10326000588789E0E82EF12CEC0EFD1ECE01019668
:10327000B7010E94291B8E010F5E1F4FCE010596DC
:10328000B8010E94291B8985823040F089898230EB
:1032900028F0C701B8010E94A11B01C081E0689617
:1032A000E6E00C94491CA8E0B0E0E9E5F9E10C94F3
:1032B0002A1C9B01AC0183E08983DA01C9018827BC
:1032C000B7FD83959927AA27BB27B82E211531056D
:1032D0004105510519F482E089833AC08823A9F099
:1032E000203080E0380780E0480780E8580729F45C
:1032F00060E070E080E09FEC30C0EE24FF248701A6
:10330000E21AF30A040B150B02C079018A018EE15F
:10331000C82ED12CDC82CB82ED82FE820F831887EF
:10332000C801B7010E94051A01971816190684F4FE
:10333000082E04C0EE0CFF1C001F111F0A94D2F7C8
:10334000ED82FE820F831887C81AD90ADC82CB82ED
:10335000BA82CE0101960E94541A2896E9E00C9494
:10336000461CACE0B0E0E7EBF9E10C94311C69835A
:103370007A838B839C83CE010196BE016B5F7F4F66
:103380000E94291B8D81823061F1823050F184309E
:1033900021F48E81882351F12EC02F81388537FD8D
:1033A00020C06E812F3131051CF06623F9F023C057
:1033B0008EE190E0821B930B29853A854B855C85D5
:1033C00004C056954795379527958A95D2F7662379
:1033D000B1F050954095309521953F4F4F4F5F4F3D
:1033E0000EC020E030E040E050E009C02FEF3FEF9A
:1033F0004FEF5FE704C020E030E040E050E8B90163
:10340000CA012C96E2E00C944D1CEF92FF920F93B0
:103410001F937B018C0180E0E81680E0F80681E0D4
:10342000080780E0180788F48FEFE816F10401051B
:10343000110531F028F088E090E0A0E0B0E017C07E
:1034400080E090E0A0E0B0E012C080E0E81680E00C
:10345000F80680E0080781E0180728F088E190E08E
:10346000A0E0B0E004C080E190E0A0E0B0E020E2A5
:1034700030E040E050E0281B390B4A0B5B0B04C0E6
:1034800016950795F794E7948A95D2F7F701EC5CC7
:10349000FD4F8081281B310941095109C9011F9144
:1034A0000F91FF90EF900895DF92EF92FF920F93AC
:1034B0001F93FC01E480F58006811781D180808113
:1034C000823048F480E090E0A0E1B0E0E82AF92AF8
:1034D0000A2B1B2BA5C0843009F49FC0823021F435
:1034E000EE24FF24870105C0E114F1040105110554
:1034F00019F4E0E0F0E096C0628173819FEF6238DA
:1035000079070CF05BC022E83FEF261B370B2A310E
:1035100031052CF020E030E040E050E02AC0B80156
:10352000A701022E04C076956795579547950A9492
:10353000D2F781E090E0A0E0B0E004C0880F991FCE
:10354000AA1FBB1F2A95D2F70197A109B1098E21A5
:103550009F21A023B1230097A105B10521F081E0AF
:1035600090E0A0E0B0E09A01AB01282B392B4A2B68
:103570005B2BDA01C9018F779070A070B070803436
:103580009105A105B10539F427FF09C0205C3F4F23
:103590004F4F5F4F04C0215C3F4F4F4F5F4FE0E004
:1035A000F0E02030A0E03A07A0E04A07A0E45A0784
:1035B00010F0E1E0F0E079018A0127C06038710580
:1035C00064F5FB01E158FF4FD801C7018F77907078
:1035D000A070B07080349105A105B10539F4E7FE03
:1035E0000DC080E490E0A0E0B0E004C08FE390E084
:1035F000A0E0B0E0E80EF91E0A1F1B1F17FF05C070
:1036000016950795F794E794319687E016950795F8
:10361000F794E7948A95D1F705C0EE24FF2487013B
:10362000EFEFF0E06E2F679566276795902F9F77F5
:10363000D794DD24D7948E2F8695492F462B582F6B
:103640005D29B701CA011F910F91FF90EF90DF90A4
:103650000895FC01DB01408151812281622F6F7747
:1036600070E0221F2227221F9381892F880F822B2F
:10367000282F30E0991F9927991F11969C93119735
:1036800021153105A9F5411551056105710511F4A3
:1036900082E037C082E89FEF13969C938E93129737
:1036A0009A01AB0167E0220F331F441F551F6A9533
:1036B000D1F783E08C930DC0220F331F441F551F99
:1036C00012968D919C911397019713969C938E93CC
:1036D0001297203080E0380780E0480780E45807E0
:1036E00058F314962D933D934D935C93179708953B
:1036F0002F3F310579F4411551056105710519F424
:1037000084E08C93089564FF03C081E08C9312C021
:103710001C9210C02F57304013963C932E93129753
:1037200083E08C9387E0440F551F661F771F8A95AF
:10373000D1F7706414964D935D936D937C931797B6
:1037400008951F93DC01FB019C91923008F447C05F
:103750008081823008F443C0943051F411961C915A
:10376000843099F58181682F70E0611B71093FC039
:10377000843021F0923031F48230B9F18181882394
:1037800089F12DC011961C9111978230F1F0818141
:103790001817D9F412962D913C9113978281938139
:1037A0008217930794F028173907BCF014968D916F
:1037B0009D910D90BC91A02D24813581468157812A
:1037C000281739074A075B0718F4112341F00AC08C
:1037D00082179307A407B50740F4112319F061E09D
:1037E00070E005C06FEF7FEF02C060E070E0CB01DA
:1037F0001F91089597FB092E07260AD077FD04D064
:103800000CD006D000201AF4709561957F4F089572
:10381000F6F7909581959F4F0895AA1BBB1B51E128
:1038200007C0AA1FBB1FA617B70710F0A61BB70B30
:10383000881F991F5A95A9F780959095BC01CD01D5
:1038400008952F923F924F925F926F927F928F9244
:103850009F92AF92BF92CF92DF92EF92FF920F931F
:103860001F93CF93DF93CDB7DEB7CA1BDB0B0FB629
:10387000F894DEBF0FBECDBF19942A8839884888D6
:103880005F846E847D848C849B84AA84B984C8847C
:10389000DF80EE80FD800C811B81AA81B981CE0F73
:1038A000D11D0FB6F894DEBF0FBECDBFED01089558
:0438B000F894FFCFBA
:1038B40044697374616E63653A20004F626A65639C
:1038C40074206465746563746564004E6F7468691C
:1038D4006E672064657465637465640000000000AD
:1038E40000000000000102020303030304040404B3
:1038F4000404040405050505050505050505050578
:103904000505050506060606060606060606060657
:103914000606060606060606060606060606060643
:103924000606060607070707070707070707070727
:103934000707070707070707070707070707070713
:103944000707070707070707070707070707070703
:1039540007070707070707070707070707070707F3
:1039640007070707080808080808080808080808D7
:1039740008080808080808080808080808080808C3
:1039840008080808080808080808080808080808B3
:1039940008080808080808080808080808080808A3
:1039A4000808080808080808080808080808080893
:1039B4000808080808080808080808080808080883
:1039C4000808080808080808080808080808080873
:1039D4000808080808080808080808080808080863
:0439E40008080808BF
:00000001FF
